{
  "_format": "hh-sol-artifact-1",
  "contractName": "DynamicSocialToken",
  "sourceName": "contracts/tokens/DynamicSocialToken.sol",
  "abi": [
    {
      "inputs": [
        {
          "internalType": "string",
          "name": "name",
          "type": "string"
        },
        {
          "internalType": "string",
          "name": "symbol",
          "type": "string"
        }
      ],
      "stateMutability": "nonpayable",
      "type": "constructor"
    },
    {
      "inputs": [],
      "name": "AddressHasToken",
      "type": "error"
    },
    {
      "inputs": [
        {
          "internalType": "address",
          "name": "sender",
          "type": "address"
        },
        {
          "internalType": "uint256",
          "name": "tokenId",
          "type": "uint256"
        },
        {
          "internalType": "address",
          "name": "owner",
          "type": "address"
        }
      ],
      "name": "ERC721IncorrectOwner",
      "type": "error"
    },
    {
      "inputs": [
        {
          "internalType": "address",
          "name": "operator",
          "type": "address"
        },
        {
          "internalType": "uint256",
          "name": "tokenId",
          "type": "uint256"
        }
      ],
      "name": "ERC721InsufficientApproval",
      "type": "error"
    },
    {
      "inputs": [
        {
          "internalType": "address",
          "name": "approver",
          "type": "address"
        }
      ],
      "name": "ERC721InvalidApprover",
      "type": "error"
    },
    {
      "inputs": [
        {
          "internalType": "address",
          "name": "operator",
          "type": "address"
        }
      ],
      "name": "ERC721InvalidOperator",
      "type": "error"
    },
    {
      "inputs": [
        {
          "internalType": "address",
          "name": "owner",
          "type": "address"
        }
      ],
      "name": "ERC721InvalidOwner",
      "type": "error"
    },
    {
      "inputs": [
        {
          "internalType": "address",
          "name": "receiver",
          "type": "address"
        }
      ],
      "name": "ERC721InvalidReceiver",
      "type": "error"
    },
    {
      "inputs": [
        {
          "internalType": "address",
          "name": "sender",
          "type": "address"
        }
      ],
      "name": "ERC721InvalidSender",
      "type": "error"
    },
    {
      "inputs": [
        {
          "internalType": "uint256",
          "name": "tokenId",
          "type": "uint256"
        }
      ],
      "name": "ERC721NonexistentToken",
      "type": "error"
    },
    {
      "inputs": [],
      "name": "EmptyInterval",
      "type": "error"
    },
    {
      "inputs": [],
      "name": "IntervalNotSet",
      "type": "error"
    },
    {
      "inputs": [],
      "name": "InvalidAddress",
      "type": "error"
    },
    {
      "inputs": [],
      "name": "TokenNotMinted",
      "type": "error"
    },
    {
      "anonymous": false,
      "inputs": [
        {
          "indexed": true,
          "internalType": "address",
          "name": "owner",
          "type": "address"
        },
        {
          "indexed": true,
          "internalType": "address",
          "name": "approved",
          "type": "address"
        },
        {
          "indexed": true,
          "internalType": "uint256",
          "name": "tokenId",
          "type": "uint256"
        }
      ],
      "name": "Approval",
      "type": "event"
    },
    {
      "anonymous": false,
      "inputs": [
        {
          "indexed": true,
          "internalType": "address",
          "name": "owner",
          "type": "address"
        },
        {
          "indexed": true,
          "internalType": "address",
          "name": "operator",
          "type": "address"
        },
        {
          "indexed": false,
          "internalType": "bool",
          "name": "approved",
          "type": "bool"
        }
      ],
      "name": "ApprovalForAll",
      "type": "event"
    },
    {
      "anonymous": false,
      "inputs": [
        {
          "indexed": false,
          "internalType": "uint256",
          "name": "_fromTokenId",
          "type": "uint256"
        },
        {
          "indexed": false,
          "internalType": "uint256",
          "name": "_toTokenId",
          "type": "uint256"
        }
      ],
      "name": "BatchMetadataUpdate",
      "type": "event"
    },
    {
      "anonymous": false,
      "inputs": [
        {
          "indexed": false,
          "internalType": "uint256",
          "name": "_tokenId",
          "type": "uint256"
        }
      ],
      "name": "MetadataUpdate",
      "type": "event"
    },
    {
      "anonymous": false,
      "inputs": [
        {
          "indexed": true,
          "internalType": "uint256",
          "name": "tokenId",
          "type": "uint256"
        },
        {
          "indexed": true,
          "internalType": "uint256",
          "name": "exp",
          "type": "uint256"
        }
      ],
      "name": "OffChainFeed",
      "type": "event"
    },
    {
      "anonymous": false,
      "inputs": [
        {
          "indexed": true,
          "internalType": "uint256",
          "name": "tokenId",
          "type": "uint256"
        },
        {
          "indexed": true,
          "internalType": "uint256",
          "name": "exp",
          "type": "uint256"
        }
      ],
      "name": "OnChainFeed",
      "type": "event"
    },
    {
      "anonymous": false,
      "inputs": [
        {
          "indexed": true,
          "internalType": "uint256",
          "name": "length",
          "type": "uint256"
        }
      ],
      "name": "ReadInterval",
      "type": "event"
    },
    {
      "anonymous": false,
      "inputs": [
        {
          "indexed": true,
          "internalType": "address",
          "name": "from",
          "type": "address"
        },
        {
          "indexed": true,
          "internalType": "address",
          "name": "to",
          "type": "address"
        },
        {
          "indexed": true,
          "internalType": "uint256",
          "name": "tokenId",
          "type": "uint256"
        }
      ],
      "name": "Transfer",
      "type": "event"
    },
    {
      "inputs": [],
      "name": "NAME",
      "outputs": [
        {
          "internalType": "string",
          "name": "",
          "type": "string"
        }
      ],
      "stateMutability": "view",
      "type": "function"
    },
    {
      "inputs": [
        {
          "internalType": "address",
          "name": "to",
          "type": "address"
        },
        {
          "internalType": "uint256",
          "name": "tokenId",
          "type": "uint256"
        }
      ],
      "name": "approve",
      "outputs": [],
      "stateMutability": "nonpayable",
      "type": "function"
    },
    {
      "inputs": [
        {
          "internalType": "address",
          "name": "owner",
          "type": "address"
        }
      ],
      "name": "balanceOf",
      "outputs": [
        {
          "internalType": "uint256",
          "name": "",
          "type": "uint256"
        }
      ],
      "stateMutability": "view",
      "type": "function"
    },
    {
      "inputs": [
        {
          "internalType": "uint256",
          "name": "tokenId",
          "type": "uint256"
        }
      ],
      "name": "getApproved",
      "outputs": [
        {
          "internalType": "address",
          "name": "",
          "type": "address"
        }
      ],
      "stateMutability": "view",
      "type": "function"
    },
    {
      "inputs": [
        {
          "internalType": "uint256",
          "name": "tokenId",
          "type": "uint256"
        }
      ],
      "name": "getDstData",
      "outputs": [
        {
          "internalType": "uint256",
          "name": "lv",
          "type": "uint256"
        },
        {
          "internalType": "uint256",
          "name": "exp",
          "type": "uint256"
        },
        {
          "internalType": "string",
          "name": "url",
          "type": "string"
        }
      ],
      "stateMutability": "view",
      "type": "function"
    },
    {
      "inputs": [],
      "name": "getDstIntervalLength",
      "outputs": [
        {
          "internalType": "uint256",
          "name": "",
          "type": "uint256"
        }
      ],
      "stateMutability": "view",
      "type": "function"
    },
    {
      "inputs": [
        {
          "internalType": "uint256",
          "name": "index",
          "type": "uint256"
        }
      ],
      "name": "getDstIntervals",
      "outputs": [
        {
          "internalType": "uint256",
          "name": "lv",
          "type": "uint256"
        },
        {
          "internalType": "uint256",
          "name": "left",
          "type": "uint256"
        },
        {
          "internalType": "uint256",
          "name": "right",
          "type": "uint256"
        },
        {
          "internalType": "string",
          "name": "url",
          "type": "string"
        }
      ],
      "stateMutability": "view",
      "type": "function"
    },
    {
      "inputs": [
        {
          "internalType": "address",
          "name": "owner",
          "type": "address"
        },
        {
          "internalType": "address",
          "name": "operator",
          "type": "address"
        }
      ],
      "name": "isApprovedForAll",
      "outputs": [
        {
          "internalType": "bool",
          "name": "",
          "type": "bool"
        }
      ],
      "stateMutability": "view",
      "type": "function"
    },
    {
      "inputs": [
        {
          "internalType": "address",
          "name": "to",
          "type": "address"
        },
        {
          "internalType": "uint256",
          "name": "initialExp",
          "type": "uint256"
        }
      ],
      "name": "mint",
      "outputs": [
        {
          "internalType": "uint256",
          "name": "",
          "type": "uint256"
        }
      ],
      "stateMutability": "nonpayable",
      "type": "function"
    },
    {
      "inputs": [],
      "name": "name",
      "outputs": [
        {
          "internalType": "string",
          "name": "",
          "type": "string"
        }
      ],
      "stateMutability": "view",
      "type": "function"
    },
    {
      "inputs": [
        {
          "internalType": "uint256",
          "name": "tokenId",
          "type": "uint256"
        },
        {
          "internalType": "uint256",
          "name": "amount",
          "type": "uint256"
        }
      ],
      "name": "offChainFeed",
      "outputs": [],
      "stateMutability": "nonpayable",
      "type": "function"
    },
    {
      "inputs": [
        {
          "internalType": "uint256",
          "name": "tokenId",
          "type": "uint256"
        },
        {
          "internalType": "uint256",
          "name": "amount",
          "type": "uint256"
        }
      ],
      "name": "onChainFeed",
      "outputs": [],
      "stateMutability": "nonpayable",
      "type": "function"
    },
    {
      "inputs": [
        {
          "internalType": "uint256",
          "name": "tokenId",
          "type": "uint256"
        }
      ],
      "name": "ownerOf",
      "outputs": [
        {
          "internalType": "address",
          "name": "",
          "type": "address"
        }
      ],
      "stateMutability": "view",
      "type": "function"
    },
    {
      "inputs": [
        {
          "components": [
            {
              "internalType": "uint256",
              "name": "lv",
              "type": "uint256"
            },
            {
              "internalType": "uint256",
              "name": "left",
              "type": "uint256"
            },
            {
              "internalType": "uint256",
              "name": "right",
              "type": "uint256"
            },
            {
              "internalType": "string",
              "name": "url",
              "type": "string"
            }
          ],
          "internalType": "struct NovaroDataTypes.DstInterval[]",
          "name": "intervals",
          "type": "tuple[]"
        }
      ],
      "name": "readInterval",
      "outputs": [],
      "stateMutability": "nonpayable",
      "type": "function"
    },
    {
      "inputs": [
        {
          "internalType": "address",
          "name": "from",
          "type": "address"
        },
        {
          "internalType": "address",
          "name": "to",
          "type": "address"
        },
        {
          "internalType": "uint256",
          "name": "tokenId",
          "type": "uint256"
        }
      ],
      "name": "safeTransferFrom",
      "outputs": [],
      "stateMutability": "nonpayable",
      "type": "function"
    },
    {
      "inputs": [
        {
          "internalType": "address",
          "name": "from",
          "type": "address"
        },
        {
          "internalType": "address",
          "name": "to",
          "type": "address"
        },
        {
          "internalType": "uint256",
          "name": "tokenId",
          "type": "uint256"
        },
        {
          "internalType": "bytes",
          "name": "data",
          "type": "bytes"
        }
      ],
      "name": "safeTransferFrom",
      "outputs": [],
      "stateMutability": "nonpayable",
      "type": "function"
    },
    {
      "inputs": [
        {
          "internalType": "address",
          "name": "operator",
          "type": "address"
        },
        {
          "internalType": "bool",
          "name": "approved",
          "type": "bool"
        }
      ],
      "name": "setApprovalForAll",
      "outputs": [],
      "stateMutability": "nonpayable",
      "type": "function"
    },
    {
      "inputs": [
        {
          "internalType": "bytes4",
          "name": "interfaceId",
          "type": "bytes4"
        }
      ],
      "name": "supportsInterface",
      "outputs": [
        {
          "internalType": "bool",
          "name": "",
          "type": "bool"
        }
      ],
      "stateMutability": "view",
      "type": "function"
    },
    {
      "inputs": [],
      "name": "symbol",
      "outputs": [
        {
          "internalType": "string",
          "name": "",
          "type": "string"
        }
      ],
      "stateMutability": "view",
      "type": "function"
    },
    {
      "inputs": [
        {
          "internalType": "uint256",
          "name": "tokenId",
          "type": "uint256"
        }
      ],
      "name": "tokenURI",
      "outputs": [
        {
          "internalType": "string",
          "name": "",
          "type": "string"
        }
      ],
      "stateMutability": "view",
      "type": "function"
    },
    {
      "inputs": [
        {
          "internalType": "address",
          "name": "from",
          "type": "address"
        },
        {
          "internalType": "address",
          "name": "to",
          "type": "address"
        },
        {
          "internalType": "uint256",
          "name": "tokenId",
          "type": "uint256"
        }
      ],
      "name": "transferFrom",
      "outputs": [],
      "stateMutability": "nonpayable",
      "type": "function"
    }
  ],
  "bytecode": "0x608060405260016007553480156200001657600080fd5b5060405162001d7438038062001d7483398101604081905262000039916200012b565b8181600062000049838262000226565b50600162000058828262000226565b5050505050620002f2565b634e487b7160e01b600052604160045260246000fd5b600082601f8301126200008b57600080fd5b81516001600160401b0380821115620000a857620000a862000063565b604051601f8301601f19908116603f01168101908282118183101715620000d357620000d362000063565b8160405283815260209250866020858801011115620000f157600080fd5b600091505b83821015620001155785820183015181830184015290820190620000f6565b6000602085830101528094505050505092915050565b600080604083850312156200013f57600080fd5b82516001600160401b03808211156200015757600080fd5b620001658683870162000079565b935060208501519150808211156200017c57600080fd5b506200018b8582860162000079565b9150509250929050565b600181811c90821680620001aa57607f821691505b602082108103620001cb57634e487b7160e01b600052602260045260246000fd5b50919050565b601f82111562000221576000816000526020600020601f850160051c81016020861015620001fc5750805b601f850160051c820191505b818110156200021d5782815560010162000208565b5050505b505050565b81516001600160401b0381111562000242576200024262000063565b6200025a8162000253845462000195565b84620001d1565b602080601f831160018114620002925760008415620002795750858301515b600019600386901b1c1916600185901b1785556200021d565b600085815260208120601f198616915b82811015620002c357888601518255948401946001909101908401620002a2565b5085821015620002e25787850151600019600388901b60f8161c191681555b5050505050600190811b01905550565b611a7280620003026000396000f3fe608060405234801561001057600080fd5b50600436106101375760003560e01c806370a08231116100b8578063ae8efa0e1161007c578063ae8efa0e1461029e578063b88d4fde146102c0578063c87b56dd146102d3578063cd81afee146102e6578063e985e9c5146102f9578063f34071871461030c57600080fd5b806370a082311461022a5780637c89258d1461023d57806395d89b4114610250578063a22cb46514610258578063a3f4df7e1461026b57600080fd5b806323b872dd116100ff57806323b872dd146101cb57806340c10f19146101de57806342842e0e146101f157806361b1499b146102045780636352211e1461021757600080fd5b806301ffc9a71461013c57806306fdde0314610164578063081812fc14610179578063095ea7b3146101a457806319d1b8d2146101b9575b600080fd5b61014f61014a3660046113c9565b61032f565b60405190151581526020015b60405180910390f35b61016c61035a565b60405161015b919061142c565b61018c61018736600461143f565b6103ec565b6040516001600160a01b03909116815260200161015b565b6101b76101b2366004611474565b610415565b005b6009545b60405190815260200161015b565b6101b76101d936600461149e565b610424565b6101bd6101ec366004611474565b6104b4565b6101b76101ff36600461149e565b610533565b6101b76102123660046114da565b610553565b61018c61022536600461143f565b61058e565b6101bd6102383660046114fc565b610599565b6101b761024b3660046114da565b6105e1565b61016c61061c565b6101b7610266366004611517565b61062b565b61016c60405180604001604052806014815260200173223cb730b6b4b19029b7b1b4b0b6102a37b5b2b760611b81525081565b6102b16102ac36600461143f565b610636565b60405161015b93929190611553565b6101b76102ce366004611643565b610710565b61016c6102e136600461143f565b610727565b6101b76102f43660046116bf565b6107cc565b61014f6103073660046117ee565b6108a8565b61031f61031a36600461143f565b6108d6565b60405161015b9493929190611821565b60006001600160e01b03198216632483248360e11b14806103545750610354826109b1565b92915050565b60606000805461036990611850565b80601f016020809104026020016040519081016040528092919081815260200182805461039590611850565b80156103e25780601f106103b7576101008083540402835291602001916103e2565b820191906000526020600020905b8154815290600101906020018083116103c557829003601f168201915b5050505050905090565b60006103f782610a01565b506000828152600460205260409020546001600160a01b0316610354565b610420828233610a3a565b5050565b6001600160a01b03821661045357604051633250574960e11b8152600060048201526024015b60405180910390fd5b6000610460838333610a47565b9050836001600160a01b0316816001600160a01b0316146104ae576040516364283d7b60e01b81526001600160a01b038086166004830152602482018490528216604482015260640161044a565b50505050565b60006001600160a01b0383166104dd5760405163e6c4247b60e01b815260040160405180910390fd5b60006104e884610599565b1115610507576040516335d9874960e11b815260040160405180910390fd5b600780546001019081905561051d908490610a5e565b61052960075483610a78565b5060075492915050565b61054e83838360405180602001604052806000815250610710565b505050565b61055d8282610a78565b604051819083907fb3cebdc3434ffe17f01aea0f124ce6d365c98fc3d551eb766e1a130b8ab786f990600090a35050565b600061035482610a01565b60006001600160a01b0382166105c5576040516322718ad960e21b81526000600482015260240161044a565b506001600160a01b031660009081526003602052604090205490565b6105eb8282610a78565b604051819083907fa583483898f6355b1a8efa42648591147f7919203e8ff06ea7a2e7887f758cd290600090a35050565b60606001805461036990611850565b610420338383610b59565b600081815260086020526040812080548291606091830361066a5760405163d03ce9df60e01b815260040160405180910390fd5b80546001820154600283018054819061068290611850565b80601f01602080910402602001604051908101604052809291908181526020018280546106ae90611850565b80156106fb5780601f106106d0576101008083540402835291602001916106fb565b820191906000526020600020905b8154815290600101906020018083116106de57829003601f168201915b50505050509050935093509350509193909250565b61071b848484610424565b6104ae84848484610bf8565b600081815260086020526040902060020180546060919061074790611850565b80601f016020809104026020016040519081016040528092919081815260200182805461077390611850565b80156107c05780601f10610795576101008083540402835291602001916107c0565b820191906000526020600020905b8154815290600101906020018083116107a357829003601f168201915b50505050509050919050565b6107d860096000611310565b805160008190036107fc5760405163709e2d0960e01b815260040160405180910390fd5b60005b8181101561087857600983828151811061081b5761081b61188a565b60209081029190910181015182546001818101855560009485529383902082516004909202019081559181015192820192909255604082015160028201556060820151600382019061086d90826118f0565b5050506001016107ff565b5060405181907fc754cbba85ac4e6d2c8f7a275dc5a3a1c35f530d1f4a00a19115bc24304c657990600090a25050565b6001600160a01b03918216600090815260056020908152604080832093909416825291909152205460ff1690565b600080600060606000600986815481106108f2576108f261188a565b906000526020600020906004020190508060000154816001015482600201548360030180805461092190611850565b80601f016020809104026020016040519081016040528092919081815260200182805461094d90611850565b801561099a5780601f1061096f5761010080835404028352916020019161099a565b820191906000526020600020905b81548152906001019060200180831161097d57829003601f168201915b505050505090509450945094509450509193509193565b60006001600160e01b031982166380ac58cd60e01b14806109e257506001600160e01b03198216635b5e139f60e01b145b8061035457506301ffc9a760e01b6001600160e01b0319831614610354565b6000818152600260205260408120546001600160a01b03168061035457604051637e27328960e01b81526004810184905260240161044a565b61054e8383836001610d21565b6000610a54848484610e27565b90505b9392505050565b610420828260405180602001604052806000815250610f20565b600082815260086020526040812060018101805491928492610a9b9084906119c6565b90915550610aaa905083610f37565b82600060028201610abb84826118f0565b508391905055505061054e83826002018054610ad690611850565b80601f0160208091040260200160405190810160405280929190818152602001828054610b0290611850565b8015610b4f5780601f10610b2457610100808354040283529160200191610b4f565b820191906000526020600020905b815481529060010190602001808311610b3257829003601f168201915b5050505050611194565b6001600160a01b038216610b8b57604051630b61174360e31b81526001600160a01b038316600482015260240161044a565b6001600160a01b03838116600081815260056020908152604080832094871680845294825291829020805460ff191686151590811790915591519182527f17307eab39ab6107e8899845ad3d59bd9653f200f220920489ca2b5937696c31910160405180910390a3505050565b6001600160a01b0383163b156104ae57604051630a85bd0160e11b81526001600160a01b0384169063150b7a0290610c3a9033908890879087906004016119d9565b6020604051808303816000875af1925050508015610c75575060408051601f3d908101601f19168201909252610c7291810190611a0c565b60015b610cde573d808015610ca3576040519150601f19603f3d011682016040523d82523d6000602084013e610ca8565b606091505b508051600003610cd657604051633250574960e11b81526001600160a01b038516600482015260240161044a565b805181602001fd5b6001600160e01b03198116630a85bd0160e11b14610d1a57604051633250574960e11b81526001600160a01b038516600482015260240161044a565b5050505050565b8080610d3557506001600160a01b03821615155b15610df7576000610d4584610a01565b90506001600160a01b03831615801590610d715750826001600160a01b0316816001600160a01b031614155b8015610d845750610d8281846108a8565b155b15610dad5760405163a9fbf51f60e01b81526001600160a01b038416600482015260240161044a565b8115610df55783856001600160a01b0316826001600160a01b03167f8c5be1e5ebec7d5bd14f71427d1e84f3dd0314c0f7b2291e5b200ac8c7c3b92560405160405180910390a45b505b5050600090815260046020526040902080546001600160a01b0319166001600160a01b0392909216919091179055565b6000828152600260205260408120546001600160a01b0390811690831615610e5457610e548184866111e4565b6001600160a01b03811615610e9257610e71600085600080610d21565b6001600160a01b038116600090815260036020526040902080546000190190555b6001600160a01b03851615610ec1576001600160a01b0385166000908152600360205260409020805460010190555b60008481526002602052604080822080546001600160a01b0319166001600160a01b0389811691821790925591518793918516917fddf252ad1be2c89b69c2b068fc378daa952ba7f163c4a11628f55a4df523b3ef91a4949350505050565b610f2a8383611248565b61054e6000848484610bf8565b600954600090606090808303610f6057604051632cc258d760e21b815260040160405180910390fd5b600084815260086020526040812060010154905b610f7f600184611a29565b8110156110a057600060098281548110610f9b57610f9b61188a565b9060005260206000209060040201604051806080016040529081600082015481526020016001820154815260200160028201548152602001600382018054610fe290611850565b80601f016020809104026020016040519081016040528092919081815260200182805461100e90611850565b801561105b5780601f106110305761010080835404028352916020019161105b565b820191906000526020600020905b81548152906001019060200180831161103e57829003601f168201915b50505050508152505090508060200151831015801561107d5750806040015183105b156110975780516060909101519097909650945050505050565b50600101610f74565b5060096110ae600184611a29565b815481106110be576110be61188a565b600091825260209091206004909102015460096110dc600185611a29565b815481106110ec576110ec61188a565b906000526020600020906004020160030180805461110990611850565b80601f016020809104026020016040519081016040528092919081815260200182805461113590611850565b80156111825780601f1061115757610100808354040283529160200191611182565b820191906000526020600020905b81548152906001019060200180831161116557829003601f168201915b50505050509050935093505050915091565b60008281526006602052604090206111ac82826118f0565b506040518281527ff8e1a15aba9398e019f0b49df1a4fde98ee17ae345cb5f6b5e2c27f5033e8ce79060200160405180910390a15050565b6111ef8383836112ad565b61054e576001600160a01b03831661121d57604051637e27328960e01b81526004810182905260240161044a565b60405163177e802f60e01b81526001600160a01b03831660048201526024810182905260440161044a565b6001600160a01b03821661127257604051633250574960e11b81526000600482015260240161044a565b600061128083836000610a47565b90506001600160a01b0381161561054e576040516339e3563760e11b81526000600482015260240161044a565b60006001600160a01b03831615801590610a545750826001600160a01b0316846001600160a01b031614806112e757506112e784846108a8565b80610a545750506000908152600460205260409020546001600160a01b03908116911614919050565b50805460008255600402906000526020600020908101906113319190611334565b50565b80821115611365576000808255600182018190556002820181905561135c6003830182611369565b50600401611334565b5090565b50805461137590611850565b6000825580601f10611385575050565b601f01602090049060005260206000209081019061133191905b80821115611365576000815560010161139f565b6001600160e01b03198116811461133157600080fd5b6000602082840312156113db57600080fd5b8135610a57816113b3565b6000815180845260005b8181101561140c576020818501810151868301820152016113f0565b506000602082860101526020601f19601f83011685010191505092915050565b602081526000610a5760208301846113e6565b60006020828403121561145157600080fd5b5035919050565b80356001600160a01b038116811461146f57600080fd5b919050565b6000806040838503121561148757600080fd5b61149083611458565b946020939093013593505050565b6000806000606084860312156114b357600080fd5b6114bc84611458565b92506114ca60208501611458565b9150604084013590509250925092565b600080604083850312156114ed57600080fd5b50508035926020909101359150565b60006020828403121561150e57600080fd5b610a5782611458565b6000806040838503121561152a57600080fd5b61153383611458565b91506020830135801515811461154857600080fd5b809150509250929050565b83815282602082015260606040820152600061157260608301846113e6565b95945050505050565b634e487b7160e01b600052604160045260246000fd5b6040516080810167ffffffffffffffff811182821017156115b4576115b461157b565b60405290565b604051601f8201601f1916810167ffffffffffffffff811182821017156115e3576115e361157b565b604052919050565b600067ffffffffffffffff8311156116055761160561157b565b611618601f8401601f19166020016115ba565b905082815283838301111561162c57600080fd5b828260208301376000602084830101529392505050565b6000806000806080858703121561165957600080fd5b61166285611458565b935061167060208601611458565b925060408501359150606085013567ffffffffffffffff81111561169357600080fd5b8501601f810187136116a457600080fd5b6116b3878235602084016115eb565b91505092959194509250565b600060208083850312156116d257600080fd5b823567ffffffffffffffff808211156116ea57600080fd5b818501915085601f8301126116fe57600080fd5b8135818111156117105761171061157b565b8060051b61171f8582016115ba565b918252838101850191858101908984111561173957600080fd5b86860192505b838310156117e1578235858111156117575760008081fd5b86016080818c03601f190181131561176f5760008081fd5b611777611591565b828a01358152604080840135828c0152606080850135828401529284013592898411156117a45760008081fd5b83850194508e603f8601126117bb57600093508384fd5b6117cb8f8d8701358488016115eb565b908301525084525050918601919086019061173f565b9998505050505050505050565b6000806040838503121561180157600080fd5b61180a83611458565b915061181860208401611458565b90509250929050565b84815283602082015282604082015260806060820152600061184660808301846113e6565b9695505050505050565b600181811c9082168061186457607f821691505b60208210810361188457634e487b7160e01b600052602260045260246000fd5b50919050565b634e487b7160e01b600052603260045260246000fd5b601f82111561054e576000816000526020600020601f850160051c810160208610156118c95750805b601f850160051c820191505b818110156118e8578281556001016118d5565b505050505050565b815167ffffffffffffffff81111561190a5761190a61157b565b61191e816119188454611850565b846118a0565b602080601f831160018114611953576000841561193b5750858301515b600019600386901b1c1916600185901b1785556118e8565b600085815260208120601f198616915b8281101561198257888601518255948401946001909101908401611963565b50858210156119a05787850151600019600388901b60f8161c191681555b5050505050600190811b01905550565b634e487b7160e01b600052601160045260246000fd5b80820180821115610354576103546119b0565b6001600160a01b0385811682528416602082015260408101839052608060608201819052600090611846908301846113e6565b600060208284031215611a1e57600080fd5b8151610a57816113b3565b81810381811115610354576103546119b056fea2646970667358221220bf8cae130461d51e6def946803ad8d8dfe174077132b524e95a28069db7684b864736f6c63430008180033",
  "linkReferences": {},
  "deployedLinkReferences": {}
}