{
  "_format": "hh-sol-artifact-1",
  "contractName": "NovaroClient",
  "sourceName": "contracts/NovaroClient.sol",
  "abi": [
    {
      "inputs": [
        {
          "internalType": "contract DynamicSocialToken",
          "name": "_dst",
          "type": "address"
        }
      ],
      "stateMutability": "nonpayable",
      "type": "constructor"
    },
    {
      "inputs": [],
      "name": "AlreadyBoundDST",
      "type": "error"
    },
    {
      "inputs": [],
      "name": "AlreadyTransferDST",
      "type": "error"
    },
    {
      "inputs": [],
      "name": "DSTNotMinted",
      "type": "error"
    },
    {
      "anonymous": false,
      "inputs": [
        {
          "indexed": true,
          "internalType": "address",
          "name": "owner",
          "type": "address"
        },
        {
          "indexed": true,
          "internalType": "address",
          "name": "boundAccount",
          "type": "address"
        },
        {
          "indexed": true,
          "internalType": "string",
          "name": "symbol",
          "type": "string"
        },
        {
          "indexed": false,
          "internalType": "string",
          "name": "name",
          "type": "string"
        },
        {
          "indexed": false,
          "internalType": "string",
          "name": "imageUri",
          "type": "string"
        },
        {
          "indexed": false,
          "internalType": "string",
          "name": "des",
          "type": "string"
        }
      ],
      "name": "CreateFollowerPassToken",
      "type": "event"
    },
    {
      "anonymous": false,
      "inputs": [
        {
          "indexed": true,
          "internalType": "address",
          "name": "user",
          "type": "address"
        },
        {
          "indexed": true,
          "internalType": "uint256",
          "name": "tokenId",
          "type": "uint256"
        },
        {
          "indexed": true,
          "internalType": "string",
          "name": "novaId",
          "type": "string"
        }
      ],
      "name": "CreateTokenBoundAccount",
      "type": "event"
    },
    {
      "inputs": [
        {
          "internalType": "string",
          "name": "_name",
          "type": "string"
        },
        {
          "internalType": "string",
          "name": "_symbol",
          "type": "string"
        },
        {
          "internalType": "string",
          "name": "_imageUrl",
          "type": "string"
        },
        {
          "internalType": "string",
          "name": "_des",
          "type": "string"
        },
        {
          "internalType": "address",
          "name": "_boundAccount",
          "type": "address"
        }
      ],
      "name": "createFollowerPassToken",
      "outputs": [],
      "stateMutability": "nonpayable",
      "type": "function"
    },
    {
      "inputs": [
        {
          "internalType": "address",
          "name": "owner",
          "type": "address"
        },
        {
          "internalType": "string",
          "name": "novaId",
          "type": "string"
        }
      ],
      "name": "createTokenBoundAccount",
      "outputs": [],
      "stateMutability": "nonpayable",
      "type": "function"
    },
    {
      "inputs": [],
      "name": "dst",
      "outputs": [
        {
          "internalType": "contract DynamicSocialToken",
          "name": "",
          "type": "address"
        }
      ],
      "stateMutability": "view",
      "type": "function"
    },
    {
      "inputs": [
        {
          "internalType": "string",
          "name": "novaId",
          "type": "string"
        }
      ],
      "name": "getDelegateTokenId",
      "outputs": [
        {
          "internalType": "uint256",
          "name": "",
          "type": "uint256"
        }
      ],
      "stateMutability": "view",
      "type": "function"
    },
    {
      "inputs": [
        {
          "internalType": "address",
          "name": "owner",
          "type": "address"
        },
        {
          "internalType": "address",
          "name": "boundAccount",
          "type": "address"
        },
        {
          "internalType": "string",
          "name": "symbol",
          "type": "string"
        }
      ],
      "name": "getFollowerPassTokenAddress",
      "outputs": [
        {
          "internalType": "address",
          "name": "",
          "type": "address"
        }
      ],
      "stateMutability": "view",
      "type": "function"
    },
    {
      "inputs": [
        {
          "internalType": "address",
          "name": "owner",
          "type": "address"
        },
        {
          "internalType": "address",
          "name": "boundAccount",
          "type": "address"
        },
        {
          "internalType": "string",
          "name": "symbol",
          "type": "string"
        }
      ],
      "name": "getFollowerPassTokenData",
      "outputs": [
        {
          "components": [
            {
              "internalType": "address",
              "name": "deployer",
              "type": "address"
            },
            {
              "internalType": "address",
              "name": "boundAccount",
              "type": "address"
            },
            {
              "internalType": "address",
              "name": "token",
              "type": "address"
            },
            {
              "internalType": "string",
              "name": "name",
              "type": "string"
            },
            {
              "internalType": "string",
              "name": "symbol",
              "type": "string"
            },
            {
              "internalType": "string",
              "name": "imageUrl",
              "type": "string"
            },
            {
              "internalType": "string",
              "name": "des",
              "type": "string"
            }
          ],
          "internalType": "struct NovaroDataTypes.FollowerPassTokenData",
          "name": "",
          "type": "tuple"
        }
      ],
      "stateMutability": "view",
      "type": "function"
    },
    {
      "inputs": [
        {
          "internalType": "string",
          "name": "novaId",
          "type": "string"
        }
      ],
      "name": "onDelegateReceived",
      "outputs": [],
      "stateMutability": "nonpayable",
      "type": "function"
    },
    {
      "inputs": [
        {
          "internalType": "address",
          "name": "operator",
          "type": "address"
        },
        {
          "internalType": "address",
          "name": "from",
          "type": "address"
        },
        {
          "internalType": "uint256",
          "name": "tokenId",
          "type": "uint256"
        },
        {
          "internalType": "bytes",
          "name": "data",
          "type": "bytes"
        }
      ],
      "name": "onERC721Received",
      "outputs": [
        {
          "internalType": "bytes4",
          "name": "",
          "type": "bytes4"
        }
      ],
      "stateMutability": "pure",
      "type": "function"
    }
  ],
  "bytecode": "0x608060405234801561001057600080fd5b50604051611dfc380380611dfc83398101604081905261002f91610054565b600280546001600160a01b0319166001600160a01b0392909216919091179055610084565b60006020828403121561006657600080fd5b81516001600160a01b038116811461007d57600080fd5b9392505050565b611d69806100936000396000f3fe60806040523480156200001157600080fd5b5060043610620000935760003560e01c8063d48532b31162000062578063d48532b3146200013d578063d612cce5146200016a578063e3f4172b1462000181578063e47651a3146200019857600080fd5b8063150b7a021462000098578063287db92614620000d85780636223895114620000fe5780638244b9881462000117575b600080fd5b620000ba620000a936600462000b2e565b630a85bd0160e11b95945050505050565b6040516001600160e01b031990911681526020015b60405180910390f35b620000ef620000e936600462000ba5565b620001af565b604051908152602001620000cf565b620001156200010f36600462000beb565b620001db565b005b6200012e6200012836600462000cce565b620004b4565b604051620000cf919062000d7f565b60025462000151906001600160a01b031681565b6040516001600160a01b039091168152602001620000cf565b620001516200017b36600462000cce565b620007d9565b620001156200019236600462000ba5565b6200083a565b62000115620001a936600462000e49565b62000923565b6000808383604051620001c492919062000ea2565b908152602001604051809103902054905092915050565b60008989898985604051620001f09062000ab7565b6200020095949392919062000edb565b604051809103906000f0801580156200021d573d6000803e3d6000fd5b50905060006040518060e00160405280336001600160a01b03168152602001846001600160a01b03168152602001836001600160a01b031681526020018c8c8080601f016020809104026020016040519081016040528093929190818152602001838380828437600092019190915250505090825250604080516020601f8d018190048102820181019092528b815291810191908c908c9081908401838280828437600092019190915250505090825250604080516020601f8b0181900481028201810190925289815291810191908a908a9081908401838280828437600092019190915250505090825250604080516020601f89018190048102820181019092528781529181019190889088908190840183828082843760009201829052509390945250503381526001602090815260408083206001600160a01b038916845290915290819020905192935083929091506200037e908c908c9062000ea2565b9081526040805160209281900383019020835181546001600160a01b03199081166001600160a01b039283161783559385015160018301805486169183169190911790559184015160028201805490941692169190911790915560608201516003820190620003ee908262000fc8565b506080820151600482019062000405908262000fc8565b5060a082015160058201906200041c908262000fc8565b5060c0820151600682019062000433908262000fc8565b50506040516200044891508a908a9062000ea2565b6040518091039020836001600160a01b0316336001600160a01b03167f51181d00076312588749b05451fccec7bd5ee67387beabcbdb439192c454f2a38e8e8c8c8c8c6040516200049f9695949392919062001095565b60405180910390a45050505050505050505050565b6040805160e0810182526000808252602080830182905282840182905260608084018190526080840181905260a0840181905260c08401526001600160a01b038881168352600182528483209088168352905282902091519091906200051e908590859062000ea2565b90815260408051918290036020908101832060e08401835280546001600160a01b0390811685526001820154811692850192909252600281015490911691830191909152600381018054606084019190620005799062000f37565b80601f0160208091040260200160405190810160405280929190818152602001828054620005a79062000f37565b8015620005f85780601f10620005cc57610100808354040283529160200191620005f8565b820191906000526020600020905b815481529060010190602001808311620005da57829003601f168201915b50505050508152602001600482018054620006139062000f37565b80601f0160208091040260200160405190810160405280929190818152602001828054620006419062000f37565b8015620006925780601f10620006665761010080835404028352916020019162000692565b820191906000526020600020905b8154815290600101906020018083116200067457829003601f168201915b50505050508152602001600582018054620006ad9062000f37565b80601f0160208091040260200160405190810160405280929190818152602001828054620006db9062000f37565b80156200072c5780601f1062000700576101008083540402835291602001916200072c565b820191906000526020600020905b8154815290600101906020018083116200070e57829003601f168201915b50505050508152602001600682018054620007479062000f37565b80601f0160208091040260200160405190810160405280929190818152602001828054620007759062000f37565b8015620007c65780601f106200079a57610100808354040283529160200191620007c6565b820191906000526020600020905b815481529060010190602001808311620007a857829003601f168201915b5050505050815250509050949350505050565b6001600160a01b0380851660009081526001602090815260408083209387168352929052818120915190919062000814908590859062000ea2565b908152604051908190036020019020600201546001600160a01b03169050949350505050565b600082826040516200084e92919062000ea2565b9081526020016040518091039020546000146200087e57604051637ee2da8d60e11b815260040160405180910390fd5b6002546040516340c10f1960e01b8152306004820152600060248201819052916001600160a01b0316906340c10f19906044016020604051808303816000875af1158015620008d1573d6000803e3d6000fd5b505050506040513d601f19601f82011682018060405250810190620008f79190620010e4565b905080600084846040516200090e92919062000ea2565b90815260405190819003602001902055505050565b600082826040516200093792919062000ea2565b9081526020016040518091039020546000036200096757604051633c47983360e21b815260040160405180910390fd5b600082826040516200097b92919062000ea2565b908152602001604051809103902054600103620009ab5760405163316c64bf60e21b815260040160405180910390fd5b6000808383604051620009c092919062000ea2565b908152604051908190036020018120546002546323b872dd60e01b83523060048401526001600160a01b0387811660248501526044840183905291935016906323b872dd90606401600060405180830381600087803b15801562000a2357600080fd5b505af115801562000a38573d6000803e3d6000fd5b5050505060016000848460405162000a5292919062000ea2565b9081526040519081900360200181209190915562000a74908490849062000ea2565b6040519081900381209082906001600160a01b038716907f0975a0807f14e8176bdff40a924c344cb8be6f095300660139aebc3a09168e1490600090a450505050565b610c3580620010ff83390190565b80356001600160a01b038116811462000add57600080fd5b919050565b60008083601f84011262000af557600080fd5b50813567ffffffffffffffff81111562000b0e57600080fd5b60208301915083602082850101111562000b2757600080fd5b9250929050565b60008060008060006080868803121562000b4757600080fd5b62000b528662000ac5565b945062000b626020870162000ac5565b935060408601359250606086013567ffffffffffffffff81111562000b8657600080fd5b62000b948882890162000ae2565b969995985093965092949392505050565b6000806020838503121562000bb957600080fd5b823567ffffffffffffffff81111562000bd157600080fd5b62000bdf8582860162000ae2565b90969095509350505050565b600080600080600080600080600060a08a8c03121562000c0a57600080fd5b893567ffffffffffffffff8082111562000c2357600080fd5b62000c318d838e0162000ae2565b909b50995060208c013591508082111562000c4b57600080fd5b62000c598d838e0162000ae2565b909950975060408c013591508082111562000c7357600080fd5b62000c818d838e0162000ae2565b909750955060608c013591508082111562000c9b57600080fd5b5062000caa8c828d0162000ae2565b909450925062000cbf905060808b0162000ac5565b90509295985092959850929598565b6000806000806060858703121562000ce557600080fd5b62000cf08562000ac5565b935062000d006020860162000ac5565b9250604085013567ffffffffffffffff81111562000d1d57600080fd5b62000d2b8782880162000ae2565b95989497509550505050565b6000815180845260005b8181101562000d5f5760208185018101518683018201520162000d41565b506000602082860101526020601f19601f83011685010191505092915050565b602080825282516001600160a01b03168282015282015160009062000daf60408401826001600160a01b03169052565b5060408301516001600160a01b038116606084015250606083015160e0608084015262000de161010084018262000d37565b90506080840151601f19808584030160a086015262000e01838362000d37565b925060a08601519150808584030160c086015262000e20838362000d37565b925060c08601519150808584030160e08601525062000e40828262000d37565b95945050505050565b60008060006040848603121562000e5f57600080fd5b62000e6a8462000ac5565b9250602084013567ffffffffffffffff81111562000e8757600080fd5b62000e958682870162000ae2565b9497909650939450505050565b8183823760009101908152919050565b81835281816020850137506000828201602090810191909152601f909101601f19169091010190565b60608152600062000ef160608301878962000eb2565b828103602084015262000f0681868862000eb2565b91505060018060a01b03831660408301529695505050505050565b634e487b7160e01b600052604160045260246000fd5b600181811c9082168062000f4c57607f821691505b60208210810362000f6d57634e487b7160e01b600052602260045260246000fd5b50919050565b601f82111562000fc3576000816000526020600020601f850160051c8101602086101562000f9e5750805b601f850160051c820191505b8181101562000fbf5782815560010162000faa565b5050505b505050565b815167ffffffffffffffff81111562000fe55762000fe562000f21565b62000ffd8162000ff6845462000f37565b8462000f73565b602080601f8311600181146200103557600084156200101c5750858301515b600019600386901b1c1916600185901b17855562000fbf565b600085815260208120601f198616915b82811015620010665788860151825594840194600190910190840162001045565b5085821015620010855787850151600019600388901b60f8161c191681555b5050505050600190811b01905550565b606081526000620010ab60608301888a62000eb2565b8281036020840152620010c081878962000eb2565b90508281036040840152620010d781858762000eb2565b9998505050505050505050565b600060208284031215620010f757600080fd5b505191905056fe60806040523480156200001157600080fd5b5060405162000c3538038062000c358339810160408190526200003491620002b6565b82826003620000448382620003d4565b506004620000538282620003d4565b5050506200007081670de0b6b3a76400006200007960201b60201c565b505050620004c8565b6001600160a01b038216620000a95760405163ec442f0560e01b8152600060048201526024015b60405180910390fd5b620000b760008383620000bb565b5050565b6001600160a01b038316620000ea578060026000828254620000de9190620004a0565b909155506200015e9050565b6001600160a01b038316600090815260208190526040902054818110156200013f5760405163391434e360e21b81526001600160a01b03851660048201526024810182905260448101839052606401620000a0565b6001600160a01b03841660009081526020819052604090209082900390555b6001600160a01b0382166200017c576002805482900390556200019b565b6001600160a01b03821660009081526020819052604090208054820190555b816001600160a01b0316836001600160a01b03167fddf252ad1be2c89b69c2b068fc378daa952ba7f163c4a11628f55a4df523b3ef83604051620001e191815260200190565b60405180910390a3505050565b634e487b7160e01b600052604160045260246000fd5b600082601f8301126200021657600080fd5b81516001600160401b0380821115620002335762000233620001ee565b604051601f8301601f19908116603f011681019082821181831017156200025e576200025e620001ee565b81604052838152602092508660208588010111156200027c57600080fd5b600091505b83821015620002a0578582018301518183018401529082019062000281565b6000602085830101528094505050505092915050565b600080600060608486031215620002cc57600080fd5b83516001600160401b0380821115620002e457600080fd5b620002f28783880162000204565b945060208601519150808211156200030957600080fd5b50620003188682870162000204565b604086015190935090506001600160a01b03811681146200033857600080fd5b809150509250925092565b600181811c908216806200035857607f821691505b6020821081036200037957634e487b7160e01b600052602260045260246000fd5b50919050565b601f821115620003cf576000816000526020600020601f850160051c81016020861015620003aa5750805b601f850160051c820191505b81811015620003cb57828155600101620003b6565b5050505b505050565b81516001600160401b03811115620003f057620003f0620001ee565b620004088162000401845462000343565b846200037f565b602080601f831160018114620004405760008415620004275750858301515b600019600386901b1c1916600185901b178555620003cb565b600085815260208120601f198616915b82811015620004715788860151825594840194600190910190840162000450565b5085821015620004905787850151600019600388901b60f8161c191681555b5050505050600190811b01905550565b80820180821115620004c257634e487b7160e01b600052601160045260246000fd5b92915050565b61075d80620004d86000396000f3fe608060405234801561001057600080fd5b506004361061009e5760003560e01c806370a082311161006657806370a082311461011857806395d89b4114610141578063a3f4df7e14610149578063a9059cbb1461017a578063dd62ed3e1461018d57600080fd5b806306fdde03146100a3578063095ea7b3146100c157806318160ddd146100e457806323b872dd146100f6578063313ce56714610109575b600080fd5b6100ab6101c6565b6040516100b891906105a6565b60405180910390f35b6100d46100cf366004610611565b610258565b60405190151581526020016100b8565b6002545b6040519081526020016100b8565b6100d461010436600461063b565b610272565b604051601281526020016100b8565b6100e8610126366004610677565b6001600160a01b031660009081526020819052604090205490565b6100ab610296565b6100ab604051806040016040528060128152602001712337b63637bbb2b92830b9b9902a37b5b2b760711b81525081565b6100d4610188366004610611565b6102a5565b6100e861019b366004610699565b6001600160a01b03918216600090815260016020908152604080832093909416825291909152205490565b6060600380546101d5906106cc565b80601f0160208091040260200160405190810160405280929190818152602001828054610201906106cc565b801561024e5780601f106102235761010080835404028352916020019161024e565b820191906000526020600020905b81548152906001019060200180831161023157829003601f168201915b5050505050905090565b6000336102668185856102b3565b60019150505b92915050565b6000336102808582856102c5565b61028b858585610348565b506001949350505050565b6060600480546101d5906106cc565b600033610266818585610348565b6102c083838360016103a7565b505050565b6001600160a01b038381166000908152600160209081526040808320938616835292905220546000198114610342578181101561033357604051637dc7a0d960e11b81526001600160a01b038416600482015260248101829052604481018390526064015b60405180910390fd5b610342848484840360006103a7565b50505050565b6001600160a01b03831661037257604051634b637e8f60e11b81526000600482015260240161032a565b6001600160a01b03821661039c5760405163ec442f0560e01b81526000600482015260240161032a565b6102c083838361047c565b6001600160a01b0384166103d15760405163e602df0560e01b81526000600482015260240161032a565b6001600160a01b0383166103fb57604051634a1406b160e11b81526000600482015260240161032a565b6001600160a01b038085166000908152600160209081526040808320938716835292905220829055801561034257826001600160a01b0316846001600160a01b03167f8c5be1e5ebec7d5bd14f71427d1e84f3dd0314c0f7b2291e5b200ac8c7c3b9258460405161046e91815260200190565b60405180910390a350505050565b6001600160a01b0383166104a757806002600082825461049c9190610706565b909155506105199050565b6001600160a01b038316600090815260208190526040902054818110156104fa5760405163391434e360e21b81526001600160a01b0385166004820152602481018290526044810183905260640161032a565b6001600160a01b03841660009081526020819052604090209082900390555b6001600160a01b03821661053557600280548290039055610554565b6001600160a01b03821660009081526020819052604090208054820190555b816001600160a01b0316836001600160a01b03167fddf252ad1be2c89b69c2b068fc378daa952ba7f163c4a11628f55a4df523b3ef8360405161059991815260200190565b60405180910390a3505050565b60006020808352835180602085015260005b818110156105d4578581018301518582016040015282016105b8565b506000604082860101526040601f19601f8301168501019250505092915050565b80356001600160a01b038116811461060c57600080fd5b919050565b6000806040838503121561062457600080fd5b61062d836105f5565b946020939093013593505050565b60008060006060848603121561065057600080fd5b610659846105f5565b9250610667602085016105f5565b9150604084013590509250925092565b60006020828403121561068957600080fd5b610692826105f5565b9392505050565b600080604083850312156106ac57600080fd5b6106b5836105f5565b91506106c3602084016105f5565b90509250929050565b600181811c908216806106e057607f821691505b60208210810361070057634e487b7160e01b600052602260045260246000fd5b50919050565b8082018082111561026c57634e487b7160e01b600052601160045260246000fdfea2646970667358221220e4bf10bd8e426c49aa189ea81389eb6e7973e71c33827c57092b69f99b392b4664736f6c63430008180033a2646970667358221220220b5534308735a59d78cf92904fc34fc838d2638e15d727212a9f1fb16beb2c64736f6c63430008180033",
  "linkReferences": {},
  "deployedLinkReferences": {}
}