{
  "_format": "hh-sol-artifact-1",
  "contractName": "ERC6551Registry",
  "sourceName": "contracts/account/ERC6551Registry.sol",
  "abi": [
    {
      "inputs": [],
      "name": "Create2EmptyBytecode",
      "type": "error"
    },
    {
      "inputs": [],
      "name": "Create2FailedDeployment",
      "type": "error"
    },
    {
      "inputs": [
        {
          "internalType": "uint256",
          "name": "balance",
          "type": "uint256"
        },
        {
          "internalType": "uint256",
          "name": "needed",
          "type": "uint256"
        }
      ],
      "name": "Create2InsufficientBalance",
      "type": "error"
    },
    {
      "inputs": [],
      "name": "InitializationFailed",
      "type": "error"
    },
    {
      "anonymous": false,
      "inputs": [
        {
          "indexed": false,
          "internalType": "address",
          "name": "account",
          "type": "address"
        },
        {
          "indexed": true,
          "internalType": "address",
          "name": "implementation",
          "type": "address"
        },
        {
          "indexed": false,
          "internalType": "uint256",
          "name": "chainId",
          "type": "uint256"
        },
        {
          "indexed": true,
          "internalType": "address",
          "name": "tokenContract",
          "type": "address"
        },
        {
          "indexed": true,
          "internalType": "uint256",
          "name": "tokenId",
          "type": "uint256"
        },
        {
          "indexed": false,
          "internalType": "uint256",
          "name": "salt",
          "type": "uint256"
        }
      ],
      "name": "AccountCreated",
      "type": "event"
    },
    {
      "inputs": [
        {
          "internalType": "address",
          "name": "implementation",
          "type": "address"
        },
        {
          "internalType": "uint256",
          "name": "chainId",
          "type": "uint256"
        },
        {
          "internalType": "address",
          "name": "tokenContract",
          "type": "address"
        },
        {
          "internalType": "uint256",
          "name": "tokenId",
          "type": "uint256"
        },
        {
          "internalType": "uint256",
          "name": "salt",
          "type": "uint256"
        }
      ],
      "name": "account",
      "outputs": [
        {
          "internalType": "address",
          "name": "",
          "type": "address"
        }
      ],
      "stateMutability": "view",
      "type": "function"
    },
    {
      "inputs": [
        {
          "internalType": "address",
          "name": "implementation",
          "type": "address"
        },
        {
          "internalType": "uint256",
          "name": "chainId",
          "type": "uint256"
        },
        {
          "internalType": "address",
          "name": "tokenContract",
          "type": "address"
        },
        {
          "internalType": "uint256",
          "name": "tokenId",
          "type": "uint256"
        },
        {
          "internalType": "uint256",
          "name": "salt",
          "type": "uint256"
        },
        {
          "internalType": "bytes",
          "name": "initData",
          "type": "bytes"
        }
      ],
      "name": "createAccount",
      "outputs": [
        {
          "internalType": "address",
          "name": "",
          "type": "address"
        }
      ],
      "stateMutability": "nonpayable",
      "type": "function"
    }
  ],
  "bytecode": "0x608060405234801561001057600080fd5b506104f4806100206000396000f3fe608060405234801561001057600080fd5b50600436106100365760003560e01c80635e9bc5361461003b578063da7323b31461006a575b600080fd5b61004e61004936600461032e565b61007d565b6040516001600160a01b03909116815260200160405180910390f35b61004e61007836600461037c565b6100ac565b60008061008d87878787876101e7565b805160209091012090506100a18382610250565b979650505050505050565b6000806100bc89898989896101e7565b905060006100d48660001b8380519060200120610250565b90506001600160a01b0381163b156100ef5791506100a19050565b604080516001600160a01b038381168252602082018c90529181018890528891808b1691908d16907f07fba7bba1191da7ee1155dcfa0030701c9c9a9cc34a93b991fc6fd0c9268d8f9060600160405180910390a461015060008784610264565b905083156101da576000816001600160a01b0316868660405161017492919061042d565b6000604051808303816000865af19150503d80600081146101b1576040519150601f19603f3d011682016040523d82523d6000602084013e6101b6565b606091505b50509050806101d857604051630337323560e31b815260040160405180910390fd5b505b9998505050505050505050565b60408051602081018390529081018590526001600160a01b0384166060828101919091526080820184905290869060a00160408051601f1981840301815290829052610236929160200161043d565b604051602081830303815290604052905095945050505050565b600061025d8383306102e8565b9392505050565b6000834710156102945760405163392efb2b60e21b81524760048201526024810185905260440160405180910390fd5b81516000036102b657604051631328927760e21b815260040160405180910390fd5b8282516020840186f590506001600160a01b03811661025d57604051633a0ba96160e11b815260040160405180910390fd5b6000604051836040820152846020820152828152600b8101905060ff815360559020949350505050565b80356001600160a01b038116811461032957600080fd5b919050565b600080600080600060a0868803121561034657600080fd5b61034f86610312565b94506020860135935061036460408701610312565b94979396509394606081013594506080013592915050565b600080600080600080600060c0888a03121561039757600080fd5b6103a088610312565b9650602088013595506103b560408901610312565b9450606088013593506080880135925060a088013567ffffffffffffffff808211156103e057600080fd5b818a0191508a601f8301126103f457600080fd5b81358181111561040357600080fd5b8b602082850101111561041557600080fd5b60208301945080935050505092959891949750929550565b8183823760009101908152919050565b733d60ad80600a3d3981f3363d3d373d3d3d363d7360601b8152606083901b6bffffffffffffffffffffffff191660148201526e5af43d82803e903d91602b57fd5bf360881b60288201528151600090815b818110156104ac576020818601810151603786840101520161048f565b5060009201603701918252509291505056fea264697066735822122005f15f975cea65c8cc7dae6c7a8c07c81dd61e4204b02c2b00a30b9a5b77a1d864736f6c63430008180033",
  "linkReferences": {},
  "deployedLinkReferences": {}
}